:100000000C942E000C944B000C944B000C94360274
:100010000C944B000C944B000C944B000C945B0222
:100020000C944B000C944B000C944B000C944B0024
:100030000C944B000C944B000C944B000C944B0014
:100040000C944B000C944B000C944B000C944B0004
:100050000C944B000C944B000C944B0011241FBECD
:10006000CFEFD4E0DEBFCDBF11E0A0E0B1E0E6E02D
:10007000F6E002C005900D92A831B107D9F723E050
:10008000A8E1B1E001C01D92AD33B207E1F70E94D3
:100090003E010C9401030C94000080EC8093E4007A
:1000A0008FE08093E70087EB8093E50087E0809303
:1000B000E6000895CF93DF93CDB7DEB764970FB610
:1000C000F894DEBF0FBECDBF94E1E4E0F1E0DE01C5
:1000D000119601900D929A95E1F76630710568F5D9
:1000E000E82FF0E0F097EE0FFF1FEC0FFD1F2181CE
:1000F0003281FB01F595E795E451FF4FDB01A170DB
:10010000BB2760FF02C06FE001C060EFAF014C5E33
:100110005F4F822F8F70329522952F7023273F706B
:100120002327109711F08295807F90819623892B49
:10013000808335964E175F0761F764960FB6F89483
:10014000DEBF0FBECDBFDF91CF910895CF92DF927A
:10015000EF92FF92CF93DF936B017C0183E0C8168F
:10016000D104E104F10474F1D701C601817099272B
:10017000AA27B078BB2354F40197A109B1098E6F67
:100180009F6FAF6FBF6F0196A11DB11D892B8A2B89
:100190008B2BD1F0C2E0D0E008C0C701B6010E94AD
:1001A0007F02672B682B692B89F021969E010D2E0B
:1001B000000C440B550B2C153D054E055F056CF3EB
:1001C00081E005C081E003C080E001C080E0DF91F4
:1001D000CF91FF90EF90DF90CF9008958F929F92F4
:1001E000AF92BF92CF92DF92EF92FF92CF93DF93C5
:1001F0004B015C01EA0124E630E040E050E00E945F
:100200007F020F2EFAE0CF2ED12CE12CF12CF02D15
:10021000A70196010E947F02BE0180E3820F0E9427
:100220005A002196C501B401A70196010E947F02E0
:10023000862FBE01805D0E945A00DF91CF91FF9012
:10024000EF90DF90CF90BF90AF909F908F900895E8
:10025000EC01C12CD12C7601C394C701B6010E94D8
:10026000A600882329F0AE01C701B6010E94EE0066
:100270008FEFC81AD80AE80AF80AEFCF0E944D009B
:1002800060E070E088E291E00E94810183E090E00C
:100290000E942801DC0115961C921E921497DB0126
:1002A000ED91FC911197309721F48D939C930895D3
:1002B000F9012481358121153105D1F79583848396
:1002C0000895CF93DF9300D0CDB7DEB79A838983AB
:1002D000809100019091010106960E94C002892B35
:1002E00059F489819A81909301018093000161E022
:1002F00070E006960E94E0020F900F90DF91CF9180
:100300000895CF93DF9300D0CDB7DEB7F894209156
:10031000180130911901232BA1F526EF31E030931C
:100320008E0120938D0123E632E03093FB01209370
:10033000FA0120ED32E030936802209367021092B8
:10034000D5021092D40220E825B92DBB20936C0071
:1003500020EC209380002DE02093810027E831E0FD
:1003600030938900209388001092850010928400B9
:1003700022E020936F0021E030E0309319012093B8
:10038000180120910201309103013A832983232B24
:10039000A9F0E981FA81448155815093030140938A
:1003A0000201918380837383628315821482CF015B
:1003B00006960E94C002019749F501C0FFCF7894CC
:1003C000A0910001B0910101ED91FC91119712965D
:1003D0008D919C9113970995F89462E071E080915A
:1003E0000001909101010E944A0180911A019091AF
:1003F0001B01009751F0FC012481358130931B01D2
:1004000020931A010E94610101C0FFCFE981FA81A6
:10041000369689819A8187599F4F918B808B938BD8
:10042000828B6AE171E089819A810E944A01789405
:100430000F900F90DF91CF9108956AE171E0809164
:100440000001909101010E944A0180911A0190914E
:100450001B01009751F0FC012481358130931B0171
:1004600020931A010E9461010895FFCF1F920F92FD
:100470000FB60F9211242F933F934F935F936F9377
:100480007F938F939F93AF93BF93EF93FF931F9BA4
:100490000E941D02FF91EF91BF91AF919F918F91AB
:1004A0007F916F915F914F913F912F910F900FBE70
:1004B0000F901F9018951F920F920FB60F92112454
:1004C0002F933F934F935F936F937F938F939F935C
:1004D000AF93BF93EF93FF930E941D02FF91EF91A3
:1004E000BF91AF919F918F917F916F915F914F914C
:1004F0003F912F910F900FBE0F901F901895052ED2
:1005000097FB1EF400940E94960257FD07D00E94AC
:100510009E0207FC03D04EF40C9496025095409531
:10052000309521953F4F4F4F5F4F0895909580959F
:10053000709561957F4F8F4F9F4F0895A1E21A2EBE
:10054000AA1BBB1BFD010DC0AA1FBB1FEE1FFF1F77
:10055000A217B307E407F50720F0A21BB30BE40BC7
:10056000F50B661F771F881F991F1A9469F760950E
:100570007095809590959B01AC01BD01CF010895C8
:10058000DC012D923D924D925D926D927D928D9205
:100590009D92AD92BD92CD92DD92ED92FD920D9322
:1005A0001D93CD93DD93FF91EF918DB78D938EB712
:1005B0008D938FB78D93ED93FD9388279927099499
:1005C000DC01CB0181309105811D2D903D904D9036
:1005D0005D906D907D908D909D90AD90BD90CD90F3
:1005E000DD90ED90FD900D911D91CD91DD91ED91FE
:1005F000FD910D90F894FEBF0FBEEDBFED91FD9102
:060600000994F894FFCFFD
:100606001C01890151151001111E111B500B411BB4
:08061600411F1101511F510B9E
:00000001FF
